:020000040800F2
:1000000000000220FD3E0008453F0008453F000873
:10001000453F0008453F0008453F0008000000003C
:10002000000000000000000000000000453F000844
:10003000453F000800000000453F0008453F00081C
:10004000453F0008453F0008453F0008453F000880
:10005000453F0008453F00089D050008453F000852
:10006000453F0008453F0008453F0008453F000860
:10007000453F0008453F0008453F0008453F000850
:10008000453F0008453F0008453F0008453F000840
:10009000453F0008453F0008453F0008453F000830
:1000A000453F0008453F0008453F0008453F000820
:1000B000453F0008453F0008453F0008453F000810
:1000C000453F0008453F0008453F0008453F000800
:1000D000453F0008453F0008453F0008453F0008F0
:1000E000453F0008453F0008453F0008453F0008E0
:1000F000453F0008453F0008453F0008453F0008D0
:10010000453F0008453F0008453F0008453F0008BF
:10011000453F0008453F0008453F0008453F0008AF
:10012000453F0008453F0008453F0008453F00089F
:10013000453F0008453F0008453F0008453F00088F
:10014000453F0008453F0008453F0008453F00087F
:10015000453F0008453F0008453F0008453F00086F
:10016000453F0008453F0008453F0008453F00085F
:10017000453F0008453F0008453F0008453F00084F
:08018000453F0008453F00085F
:1001880010B5054C237833B9044B13B10448AFF3C9
:1001980000800123237010BD7808002000000000B3
:1001A800AC470008084B10B51BB108480849AFF325
:1001B80000800848036803B910BD074B002BFBD02B
:1001C800BDE81040184700BF00000000AC47000819
:1001D8007C0800207408002000000000154B002B4C
:1001E80008BF134B9D46A3F5803A00218B460F4666
:1001F8001348144A121A03F04DFD0F4B002B00D080
:1002080098470E4B002B00D098470020002104008F
:100218000D000D48002802D00C4803F0FDFD03F046
:1002280011FD2000290000F013F803F0FBFC00BFCB
:1002380000000800000000000000000000000000AE
:1002480078080020D4080020213E00082D3E000830
:1002580080B500AF00F0D6F800F002F8FEE700BF66
:1002680080B582B000AF0223FB800023BB80FA88F0
:10027800BB881046194600F029F800F007F8FB88FB
:10028800184600F04BF80837BD4680BD80B582B0EF
:1002980000AF0120012100F0B7FF40233B6000239D
:1002A800BB710023FB7102233B7103237B713B4627
:1002B8000548194601F03AFC03480621022201F0DC
:1002C800A3FD0837BD4680BD0000024080B586B05A
:1002D80000AF03460A46FB801346BB80022001217B
:1002E80000F0ECFFBB88BB810023FB81FB883B61EE
:1002F8000023BB8207F10C030748194601F0AAFE48
:100308000548012101F0D0FF0348012102F024F83B
:100318001837BD4680BD00BF0004004080B588B0D6
:1003280000AF0346FB80FB885B08FB8360233B81AF
:10033800FB8B3B6101237B810023BB8207F1080310
:100348000748194602F028F80548082102F038FB4A
:100358000348012102F064FF2037BD4680BD00BF7D
:100368000004004080B582B000AF4020012100F0B9
:100378004BFF01233B710023BB7102237B710023D8
:10038800FB714FF400433B603B460348194601F0BC
:10039800CDFB0837BD4680BD0018024080B582B04D
:1003A80000AF0220012100F02FFF01233B71002341
:1003B800BB7102237B710023FB714FF480633B60A8
:1003C8003B460348194601F0B1FB0837BD4680BDDE
:1003D8000004024080B582B000AF0820012100F07F
:1003E80013FF00233B710223FB71FF233B603B4655
:1003F8000348194601F09AFB0837BD4680BD00BF87
:10040800000C024080B582B000AF3223FB8000238D
:10041800BB8000F00DF8FA88BB881046194600F03A
:1004280029F8FB88184600F04BF80837BD4680BD10
:1004380080B582B000AF0820012100F0E5FE4FF43E
:1004480080533B600023BB710123FB7102233B7186
:1004580003237B713B460648194601F067FB0448B5
:100468000C21022201F0D0FC0837BD4680BD00BF38
:10047800000C024080B586B000AF03460A46FB80F8
:100488001346BB800420012100F018FFBB88BB8104
:100498000023FB81FB883B610023BB820023BB75E3
:1004A80007F10C030548194601F0D4FD0348012162
:1004B80001F052FF1837BD4680BD00BF000800405C
:1004C80080B588B000AF0346FB80FB880133322239
:1004D80002FB03F3104A82FB03125211DB17D31AF3
:1004E8009BB2013BFB8370233B81FB8B3B61012368
:1004F8007B810223BB8207F108030848194601F0F3
:100508004BFF0648082102F05BFA0448012102F07B
:1005180087FE2037BD4680BD1F85EB51000800408F
:1005280080B586B000AF0220012100F06DFE0023E7
:100538003B750223FB7501233B6107F11003144847
:10054800194601F0F3FA4FF48040012100F0D4FE7F
:100558000120002101F0E0F90123BB6000233B7377
:1005680008237B730123BB7307F10803184601F0C6
:10057800C1F806233B7100237B710123BB71012362
:10058800FB713B1D184603F091FA1837BD4680BD34
:100598000004024080B400AF044A044B5B6943F096
:1005A80001035361BD465DF8047B7047003C014080
:1005B80080B483B000AF064B7B607B681B6843F058
:1005C80002027B681A600C37BD465DF8047B7047F1
:1005D8003038024080B483B000AF064B7B607B6844
:1005E8001B6843F010027B681A600C37BD465DF843
:1005F800047B70474438024080B400AF1D4B1B6831
:100608001C4A1268126822F440521A60194B1B687F
:10061800184A1268126842F400521A60154B1B6897
:10062800144A1268526822F040025A60114B1B6843
:10063800104A1268926822F440529A600D4B1B6867
:100648000C4A1268926842F400529A60094B1B687F
:10065800084A1268126A22F0E0621A62054B1B68A7
:10066800044A1268126A42F0E0621A62BD465DF8F6
:10067800047B70470400002080B487B000AF786026
:10068800504B1B684F4A1268928992B222F48052EA
:1006980092B29A814B4B1B684A4A1268928992B26D
:1006A80022F4806292B29A81464B1B68454A1268CE
:1006B800928992B242F0080292B29A81414B1B6829
:1006C800404A1268928992B242F0040292B29A8128
:1006D8003C4B1B683B4A1268128A92B222F4405281
:1006E80092B21A82374B1B68364A1268928A92B2C3
:1006F80022F4407292B29A82324B1B689B899BB259
:100708009BB21BB2002B27DA7B685B002E4AB2FB38
:10071800F3F37B617B692D4AA2FB03235B093B61F1
:100728003B69642202FB03F37A69D31ADB00323394
:10073800264AA2FB03235B09FB60224B1B683A692C
:1007480092B2120191B2FA6892B202F0070292B222
:100758000A4392B21A8126E07B689B001A4AB2FBD0
:10076800F3F37B617B69194AA2FB03235B093B61B5
:100778003B69642202FB03F37A69D31A1B01323303
:10078800124AA2FB03235B09FB600E4B1B683A6904
:1007980092B2120191B2FA6892B202F00F0292B2CA
:1007A8000A4392B21A81074B1B68064A126892895B
:1007B80092B242F4005292B29A811C37BD465DF85B
:1007C800047B70470800002000752B7D1F85EB51C6
:1007D80080B500AFFFF7ECFEFFF7FCFEFFF70CFF5C
:1007E8004FF4E130FFF748FF80BD00BF80B584B00B
:1007F80000AF78603960FFF7EBFF0023FB6014E07F
:1008080000BF0E4B1B681B889BB203F04003002BF4
:10081800F7D00A4B1B687A68127892B29A807B6884
:1008280001337B60FB680133FB60FA683B689A42DE
:10083800E6DB3B6818461037BD4680BD080000203F
:1008480080B582B000AF786001200249042200F030
:1008580017F9FEE78047000880B483B000AF7860DE
:100868004FF0FF3318460C37BD465DF8047B7047E0
:1008780080B485B000AFF860B9607A60054B0C228F
:100888001A604FF0FF3318461437BD465DF8047BF5
:10089800704700BFD008002080B400AF044B0B2283
:1008A8001A604FF0FF331846BD465DF8047B704769
:1008B800D008002080B483B000AF786039603B680E
:1008C8004FF400525A60002318460C37BD465DF8B5
:1008D800047B704780B400AF01231846BD465DF81D
:1008E800047B704780B483B000AF78607B680033C6
:1008F800022B01D8012303E0044B09221A600023CC
:1009080018460C37BD465DF8047B7047D0080020B8
:1009180080B483B000AF78603960054B16221A6046
:100928004FF0FF3318460C37BD465DF8047B70471F
:10093800D008002080B483B000AF78603960054BE0
:100948001F221A604FF0FF3318460C37BD465DF87A
:10095800047B7047D008002080B485B000AFF860F1
:10096800B9607A60002318461437BD465DF8047BE9
:10097800704700BF90B585B000AF7860154B1B6815
:10098800002B02D1134B144A1A60124B1B68FB60F0
:10099800EFF308831C462346BB600E4B1A687B683E
:1009A8001A44BB689A420AD902200C49192200F05D
:1009B80067F80B4B0C221A604FF0FF3306E0054B2B
:1009C8001A687B681344034A1360FB681846143797
:1009D800BD4690BD98080020D4080020884700082C
:1009E800D008002080B485B000AFF860B9607A60A4
:1009F8004FF0FF3318461437BD465DF8047B704747
:100A080080B483B000AF786039603B684FF400521F
:100A18005A60002318460C37BD465DF8047B7047C2
:100A280080B483B000AF78604FF0FF3318460C37BE
:100A3800BD465DF8047B704780B483B000AF786032
:100A4800054B02221A604FF0FF3318460C37BD469B
:100A58005DF8047B704700BFD008002080B483B0E5
:100A680000AF7860054B0A221A604FF0FF33184632
:100A78000C37BD465DF8047B704700BFD0080020E6
:100A880080B584B000AFF860B9607A60FB68012B6C
:100A980002D0022B06D00BE0B8687968FFF7A6FEF3
:100AA80078600BE0B8687968FFF7A0FE786005E029
:100AB800054B09221A604FF0FF3300E07B681846A7
:100AC8001037BD4680BD00BFD008002080B500AFFC
:100AD800154A154BD3F8883043F47003C2F88830B0
:100AE800124A124B1B6843F0010313600F4B00229C
:100AF8009A600E4A0D4B1B6823F0847323F48033ED
:100B080013600A4B0A4A5A60084A084B1B6823F4C8
:100B180080231360054B0022DA6000F069F8024B6D
:100B28004FF000629A6080BD00ED00E0003802409E
:100B38001030002480B487B000AF00237B6100230D
:100B48003B610223FB600023BB6002237B60234BD5
:100B58009B6803F00C037B617B69042B07D0082B8F
:100B680009D0002B21D11E4B1E4A1A6021E01C4BD4
:100B78001D4A1A601DE0194B5B6803F480039B0D46
:100B8800BB60164B5B6803F03F037B60134B5B68ED
:100B980003F440331B0C01335B00FB603A69FB68CC
:100BA800B2FBF3F30E4A136003E00D4B0D4A1A60D3
:100BB80000BF0A4B9B6803F0F0031B090B4AD35C88
:100BC800DBB27B61064B1A687B6922FA03F3044A9D
:100BD80013601C37BD465DF8047B7047003802403F
:100BE800100000200024F40000127A0014000020F5
:100BF80080B400AFBD465DF8047B704780B483B015
:100C080000AF786000BF7B685A1E7A60002BFAD16B
:100C18000C37BD465DF8047B704700BF80B582B0D5
:100C280000AF786003E04FF47A70FFF7E7FF7B6866
:100C38005A1E7A60002BF6D10837BD4680BD00BF2A
:100C480080B400AF104A104B1B6843F001031360D7
:100C58000D4B00229A600C4A0B4B1B6823F08473DF
:100C680023F480331360084B084A5A60064A064B3F
:100C78001B6823F480231360034B0022DA60BD460F
:100C88005DF8047B704700BF003802401030002434
:100C980080B483B000AF0346FB71054B00221A7085
:100CA800034AFB7913700C37BD465DF8047B704727
:100CB8000238024080B582B000AF00233B600023B9
:100CC800FB710023BB71312000F086FC0346BB7129
:100CD8003B6801333B603B68B3F5A06F02D0BB793A
:100CE800002BF0D0312000F077FC0346002B02D017
:100CF8000123FB7101E00023FB71FB7918460837DB
:100D0800BD4680BD80B485B000AF0346FB710023AB
:100D1800FB600A4B1B68FB60FB6823F0F803FB6071
:100D2800FB79DB00FA681343FB60044AFB68136035
:100D38001437BD465DF8047B704700BF0038024099
:100D480080B483B000AF0346FB71044AFB7913609B
:100D58000C37BD465DF8047B704700BF0000474272
:100D680080B483B000AF0346FB710C4B00221A70AD
:100D78000A4B00221A70FB79012B02D0042B04D0F5
:100D880007E0064B01221A7003E0044B05221A7093
:100D980000BF0C37BD465DF8047B704770380240D1
:100DA80080B483B000AF0346FB71044AFB7913603B
:100DB8000C37BD465DF8047B704700BF800E474284
:100DC80080B485B000AFF860B9607A603B600A49CA
:100DD8007B689A01BB681A433B685B08013B1B04AC
:100DE8001A43FB681A43BB691B0613434B6014374D
:100DF800BD465DF8047B70470038024080B483B07C
:100E080000AF0346FB71044AFB7913600C37BD46FB
:100E18005DF8047B704700BF6000474280B483B030
:100E280000AF7860396006497B689A013B681B0708
:100E38001343C1F884300C37BD465DF8047B704716
:100E48000038024080B483B000AF0346FB71044A07
:100E5800FB7913600C37BD465DF8047B704700BF13
:100E68006800474280B483B000AF0346FB71044A70
:100E7800FB7913600C37BD465DF8047B704700BFF3
:100E88004C00474280B485B000AF786039600023D9
:100E9800FB600A4B9B68FB60FB6823F0EC63FB601C
:100EA8007A683B681343FA681343FB60034AFB689C
:100EB80093601437BD465DF8047B704700380240E4
:100EC80080B485B000AF786039600023FB600A4BBE
:100ED8009B68FB60FB6823F07843FB607A683B689B
:100EE8001343FA681343FB60034AFB6893601437A3
:100EF800BD465DF8047B70470038024080B485B079
:100F080000AF78600023FB60094B9B68FB60FB68BF
:100F180023F00303FB60FA687B681343FB60044A11
:100F2800FB6893601437BD465DF8047B704700BFCB
:100F38000038024080B400AF054B9B68DBB203F079
:100F48000C03DBB21846BD465DF8047B704700BF52
:100F58000038024080B485B000AF78600023FB60A1
:100F6800094B9B68FB60FB6823F0F003FB60FA68A1
:100F78007B681343FB60044AFB6893601437BD46E3
:100F88005DF8047B704700BF0038024080B485B02C
:100F980000AF78600023FB60094B9B68FB60FB682F
:100FA80023F4E053FB60FA687B681343FB60044A50
:100FB800FB6893601437BD465DF8047B704700BF3B
:100FC8000038024080B485B000AF78600023FB6031
:100FD800094B9B68FB60FB6823F46043FB607B68FC
:100FE800DB00FA681343FB60034AFB68936014371D
:100FF800BD465DF8047B70470038024080B489B074
:1010080000AF78600023BB6100237B610023FB6194
:1010180002233B610023FB600223BB60484B9B68B3
:1010280003F00C03BB61BB69042B07D0082B09D064
:10103800002B3FD17B68434A1A603FE07B68424AF5
:101048001A603BE03E4B5B6803F480039B0DFB603A
:101058003B4B5B6803F03F03BB60FB68002B0DD084
:10106800394ABB68B2FBF3F2354B596847F6C0738F
:101078000B409B0903FB02F3FB610CE0314ABB68A0
:10108800B2FBF3F22E4B596847F6C0730B409B092D
:1010980003FB02F3FB612A4B5B6803F440331B0C30
:1010A80001335B003B61FA693B69B2FBF3F27B6891
:1010B8001A6003E07B68234A1A6000BF204B9B68D4
:1010C80003F0F003BB61BB691B09BB611F4ABB6925
:1010D80013441B78DBB27B617B681A687B69DA4052
:1010E8007B685A60164B9B6803F4E053BB61BB698D
:1010F8009B0ABB61154ABB6913441B78DBB27B6151
:101108007B685A687B69DA407B689A600C4B9B68FD
:1011180003F46043BB61BB695B0BBB610B4ABB69F2
:1011280013441B78DBB27B617B685A687B69DA40C1
:101138007B68DA602437BD465DF8047B704700BFE2
:10114800003802400024F40000127A002400002035
:1011580080B485B000AF78600023FB607B6803F43F
:101168004073B3F5407F11D10F4B9B68FB60FB6860
:1011780023F4F813FB607B6823F0704323F4407377
:10118800FA681343FB60084AFB6893600649064BFC
:101198001A6F7B68C3F30B0313430B671437BD4601
:1011A8005DF8047B704700BF0038024080B483B00C
:1011B80000AF0346FB71044AFB7913600C37BD4648
:1011C8005DF8047B704700BF3C0E474280B483B093
:1011D80000AF0346FB71044AFB7913600C37BD4628
:1011E8005DF8047B704700BF400E474280B483B06F
:1011F80000AF7860034A7B6813600C37BD465DF822
:10120800047B70475C01474280B483B000AF7860CC
:101218000B46FB70FB78002B06D00949084B1A6B6C
:101228007B6813430B6306E00549054B1A6B7B6823
:10123800DB4313400B630C37BD465DF8047B7047F6
:101248000038024080B483B000AF78600B46FB7072
:10125800FB78002B06D00949084B5A6B7B6813436F
:101268004B6306E00549054B5A6B7B68DB4313402B
:101278004B630C37BD465DF8047B7047003802406D
:1012880080B483B000AF78600B46FB70FB78002B0E
:1012980006D00949084B9A6B7B6813438B6306E0B9
:1012A8000549054B9A6B7B68DB4313408B630C370E
:1012B800BD465DF8047B70470038024080B483B0B7
:1012C80000AF78600B46FB70FB78002B06D009490D
:1012D800084B1A6C7B6813430B6406E00549054B01
:1012E8001A6C7B68DB4313400B640C37BD465DF812
:1012F800047B70470038024080B483B000AF786048
:101308000B46FB70FB78002B06D00949084B5A6C3A
:101318007B6813434B6406E00549054B5A6C7B68B0
:10132800DB4313404B640C37BD465DF8047B7047C4
:101338000038024080B483B000AF78600B46FB7081
:10134800FB78002B06D00949084B1A697B681343C0
:101358000B6106E00549054B1A697B68DB431340BE
:101368000B610C37BD465DF8047B704700380240BE
:1013780080B483B000AF78600B46FB70FB78002B1D
:1013880006D00949084B5A697B6813434B6106E04C
:101398000549054B5A697B68DB4313404B610C37A1
:1013A800BD465DF8047B70470038024080B483B0C6
:1013B80000AF78600B46FB70FB78002B06D009491C
:1013C800084B9A697B6813438B6106E00549054B16
:1013D8009A697B68DB4313408B610C37BD465DF827
:1013E800047B70470038024080B483B000AF786057
:1013F8000B46FB70FB78002B06D00949084B1A6A8C
:101408007B6813430B6206E00549054B1A6A7B6843
:10141800DB4313400B620C37BD465DF8047B704715
:101428000038024080B483B000AF78600B46FB7090
:10143800FB78002B06D00949084B5A6A7B6813438E
:101448004B6206E00549054B5A6A7B68DB4313404B
:101458004B620C37BD465DF8047B7047003802408C
:1014680080B483B000AF78600B46FB70FB78002B2C
:1014780006D00949084B1A6D7B6813430B6506E0D3
:101488000549054B1A6D7B68DB4313400B650C3728
:10149800BD465DF8047B70470038024080B483B0D5
:1014A80000AF78600B46FB70FB78002B06D009492B
:1014B800084B5A6D7B6813434B6506E00549054B9D
:1014C8005A6D7B68DB4313404B650C37BD465DF8AE
:1014D800047B70470038024080B483B000AF786066
:1014E8000B46FB70FB78002B06D00949084B9A6D18
:1014F8007B6813438B6506E00549054B9A6D7B684D
:10150800DB4313408B650C37BD465DF8047B7047A1
:101518000038024080B483B000AF78600B46FB709F
:10152800FB78002B06D00949084B1A6E7B681343D9
:101538000B6606E00549054B1A6E7B68DB431340D2
:101548000B660C37BD465DF8047B704700380240D7
:1015580080B483B000AF78600B46FB70FB78002B3B
:1015680006D00949084B5A6E7B6813434B6606E060
:101578000549054B5A6E7B68DB4313404B660C37B5
:10158800BD465DF8047B70470038024080B483B0E4
:1015980000AF03460A46FB711346BB71BB79002BAB
:1015A80008D00C490B4B1B78DAB2FB791343DBB23A
:1015B8000B7009E00749074B1B78DAB2FB79DB436C
:1015C800DBB21340DBB20B700C37BD465DF8047B11
:1015D800704700BF0D38024080B487B000AF0346A3
:1015E800FB710023FB6000237B610023FB74FB7904
:1015F8005B09DBB2FB60FB68012B03D1124B1B6854
:101608007B6109E0FB68022B03D10F4B1B6F7B61E9
:1016180002E00D4B5B6F7B61FB7903F01F03FB60FE
:10162800FB687A6922FA03F303F00103002B02D066
:101638000123FB7401E00023FB74FB7C18461C3774
:10164800BD465DF8047B70470038024080B400AFA7
:10165800044A044B5B6F43F080735367BD465DF8E3
:10166800047B70470038024080B485B000AF034661
:10167800FB710023FB73094BDA68FB791340002BDD
:1016880002D00123FB7301E00023FB73FB7B1846A8
:101698001437BD465DF8047B704700BF0038024030
:1016A80080B483B000AF0346FB71044AFB79137022
:1016B8000C37BD465DF8047B704700BF0E3802400A
:1016C80080B400AF094B00221A60084B00225A6010
:1016D800064B00229A60054B0022DA60034B044A4D
:1016E8005A61BD465DF8047B704700BF003C01406D
:1016F800FFFF7F0080B485B000AF78600023FB60F7
:10170800344BFB607B689B79002B4FD03149314BC0
:101718001A687B681B68DB4313400B602D492D4B0F
:101728005A687B681B68DB4313404B607B681B79F6
:101738001A46FB681344FB60FB68FA6811687A680C
:1017480012680A431A602349224B9A687B681B680F
:10175800DB4313408B601F491E4BDA687B681B68AC
:10176800DB431340CB607B685B79102B0ED11949A2
:10177800184B9A687B681B6813438B601549154B97
:10178800DA687B681B681343CB601DE0114BFB6074
:101798007B685B791A46FB681344FB60FB68FA6850
:1017A80011687A6812680A431A600DE07B681B7931
:1017B8001A46FB681344FB60FB68FA6811687A688C
:1017C8001268D2430A401A601437BD465DF8047B9C
:1017D800704700BF003C014080B483B000AF786020
:1017E8007B6800221A607B6800221A717B680C22D1
:1017F8005A717B6800229A710C37BD465DF8047BEC
:10180800704700BF80B483B000AF78600549054BCE
:101818001A697B6813430B610C37BD465DF8047B7E
:10182800704700BF003C014080B485B000AF7860CD
:101838000023FB73084B5A697B681340002B02D0C6
:101848000123FB7301E00023FB73FB7B184614376D
:10185800BD465DF8047B7047003C014080B483B00E
:1018680000AF7860034A7B6853610C37BD465DF86A
:10187800047B7047003C014080B485B000AF7860BD
:101888000023FB730023BB600C4B1A687B68134072
:10189800BB600A4B5A697B681340002B05D0BB68B4
:1018A800002B02D00123FB7301E00023FB73FB7BB9
:1018B80018461437BD465DF8047B7047003C01406C
:1018C80080B483B000AF7860034A7B6853610C37FB
:1018D800BD465DF8047B7047003C014080B500AF11
:1018E8004FF480400121FFF79DFD4FF48040002117
:1018F800FFF798FD80BD00BF80B483B000AF0346FA
:10190800FB71044AFB7913600C37BD465DF8047B14
:10191800704700BF0038014090B484B000AF034660
:101928000A46FB711346BB710023FB60BB7903F0C9
:1019380003039B000F2202FA03F3FB601649BB79ED
:101948009B08DBB21846144ABB799B08DBB202330A
:1019580052F82320FB68DB431A40831C41F82320FC
:101968000D48BB799B08DBB21C460B4ABB799B0828
:10197800DBB2023352F82320F979BB7903F0030371
:101988009B0001FA03F31A43A31C40F823201037E5
:10199800BD4690BC704700BF0038014080B483B09A
:1019A80000AF7860034A7B6813600C37BD465DF86A
:1019B800047B7047DC00274280B483B000AF034645
:1019C800FB71044AFB7913600C37BD465DF8047B54
:1019D800704700BF0004274280B483B000AF0023E3
:1019E800FB71094B1B6A03F48073002B02D001239F
:1019F800FB7101E00023FB71FB7918460C37BD46EB
:101A08005DF8047B704700BF0038014080B582B0A4
:101A180000AF78607B683C4A934208D101200121DD
:101A2800FFF788FC01200021FFF784FC68E07B6851
:101A3800364A934208D102200121FFF77BFC02209D
:101A48000021FFF777FC5BE07B68314A934208D1BD
:101A580004200121FFF76EFC04200021FFF76AFC37
:101A68004EE07B682B4A934208D108200121FFF7FA
:101A780061FC08200021FFF75DFC41E07B68264AF5
:101A8800934208D110200121FFF754FC10200021B7
:101A9800FFF750FC34E07B68204A934208D12020AD
:101AA8000121FFF747FC20200021FFF743FC27E036
:101AB8007B681B4A934208D140200121FFF73AFC7A
:101AC80040200021FFF736FC1AE07B68154A934254
:101AD80008D180200121FFF72DFC80200021FFF78D
:101AE80029FC0DE07B68104A934209D14FF48070BD
:101AF8000121FFF71FFC4FF480700021FFF71AFC4B
:101B08000837BD4680BD00BF000002400004024007
:101B180000080240000C024000100240001402407D
:101B280000180240001C02400020024080B487B028
:101B380000AF7860396000237B6100233B6100239C
:101B4800FB6000237B6176E07B69012202FA03F3E4
:101B58003B613B681A683B691340FB60FA683B6964
:101B68009A4265D17B681A687B695B001946032332
:101B78008B40DB431A407B681A607B681A683B68B5
:101B88001B7919467B695B0001FA03F31A437B68EA
:101B98001A603B681B79012B03D03B681B79022B29
:101BA8002ED17B689A687B695B00194603238B40BA
:101BB800DB431A407B689A607B689A683B685B796C
:101BC80019467B695B0001FA03F31A437B689A6044
:101BD8007B685A687B699BB2194601238B40DB43BB
:101BE8001A407B685A607B685B683A68927911464C
:101BF8007A6992B201FA02F292B21A437B685A6089
:101C08007B68DA687B699BB25B00032101FA03F306
:101C1800DB431A407B68DA607B68DA683B68DB790B
:101C280019467B695B0001FA03F31A437B68DA60A3
:101C38007B6901337B617B690F2B85D91C37BD46D6
:101C48005DF8047B704700BF80B483B000AF786054
:101C58007B684FF6FF721A607B6800221A717B68F6
:101C680000225A717B6800229A717B680022DA711F
:101C78000C37BD465DF8047B704700BF80B485B063
:101C880000AF78600B467B804FF48033FB607A8826
:101C9800FB681343FB60FA687B68DA617A887B68C3
:101CA800DA61FA687B68DA617B68DB69FB607B680C
:101CB800DB69FB601437BD465DF8047B704700BFE5
:101CC80080B485B000AF78600B467B800023FB733F
:101CD8007B681A697B881340002B02D00123FB73B1
:101CE80001E00023FB73FB7B18461437BD465DF803
:101CF800047B704780B483B000AF78607B681B6951
:101D08009BB218460C37BD465DF8047B704700BF90
:101D180080B485B000AF78600B467B800023FB73EE
:101D28007B685A697B881340002B02D00123FB7320
:101D380001E00023FB73FB7B18461437BD465DF8B2
:101D4800047B704780B483B000AF78607B685B69C0
:101D58009BB218460C37BD465DF8047B704700BF40
:101D680080B483B000AF78600B467B807B687A884C
:101D78001A830C37BD465DF8047B704780B483B086
:101D880000AF78600B467B807B687A885A830C3773
:101D9800BD465DF8047B704780B483B000AF7860BF
:101DA8000B467B8013467B707B78002B03D07B68C7
:101DB8007A881A8302E07B687A885A830C37BD4692
:101DC8005DF8047B704700BF80B483B000AF7860D3
:101DD8000B467B807A887B685A610C37BD465DF874
:101DE800047B704780B483B000AF78600B467B807B
:101DF8007B685A697B885A407B685A610C37BD46B4
:101E08005DF8047B704700BF80B485B000AF786090
:101E18000B467B8013467B700023FB600023BB606E
:101E28007B787A8802F0070292009340FB607B88F7
:101E3800DB089BB218467B88DB089BB21A467B6896
:101E4800083253F822207B8803F007039B001946C9
:101E58000F238B40DB4302EA03017B6800F1080291
:101E680043F822107B88DB089BB21A467B6808324D
:101E780053F82220FB681343BB607B88DB089BB2C6
:101E88001A467B680832B96843F822101437BD46F1
:101E98005DF8047B704700BF80B582B000AF786002
:101EA8007B685F4A934208D101200121FFF7BAFA03
:101EB80001200021FFF7B6FAAFE07B68B3F1804F4D
:101EC80008D101200121FFF78FFA01200021FFF737
:101ED8008BFAA2E07B68534A934208D10220012181
:101EE800FFF782FA02200021FFF77EFA95E07B686F
:101EF8004D4A934208D104200121FFF775FA0420C6
:101F08000021FFF771FA88E07B68484A934208D1BC
:101F180008200121FFF768FA08200021FFF764FA7A
:101F28007BE07B68424A934208D110200121FFF7E9
:101F38005BFA10200021FFF757FA6EE07B683D4AF4
:101F4800934208D120200121FFF74EFA20200021DA
:101F5800FFF74AFA61E07B68374A934208D10220CA
:101F68000121FFF75FFA02200021FFF75BFA54E036
:101F78007B68324A93420AD14FF480300121FFF73F
:101F880051FA4FF480300021FFF74CFA45E07B68A6
:101F98002B4A93420AD14FF400300121FFF742FA4D
:101FA8004FF400300021FFF73DFA36E07B68254A00
:101FB80093420AD14FF480200121FFF733FA4FF4FE
:101FC80080200021FFF72EFA27E07B681E4A934203
:101FD80008D140200121FFF707FA40200021FFF730
:101FE80003FA1AE07B68194A934208D1802001213C
:101FF800FFF7FAF980200021FFF7F6F90DE07B687A
:10200800134A934209D14FF480700121FFF7ECF98C
:102018004FF480700021FFF7E7F90837BD4680BD0F
:10202800000001400004004000080040000C00408F
:10203800001000400014004000040140004001402E
:10204800004401400048014000180040001C0040C6
:102058000020004080B485B000AF7860396000236C
:10206800FB817B681B88FB817B68284A934213D0DD
:102078007B68274A93420FD07B68B3F1804F0BD01F
:102088007B68244A934207D07B68234A934203D053
:102098007B68224A934208D1FB8923F07003FB81B5
:1020A8003B685A88FB891343FB817B681C4A93422F
:1020B8000CD07B681B4A934208D0FB8923F44073F9
:1020C800FB813B681A89FB891343FB817B68FA898A
:1020D8001A803B685A687B68DA623B681A887B68B2
:1020E8001A857B68094A934203D07B68084A934261
:1020F80004D13B689B7A9AB27B681A867B68012276
:102108009A821437BD465DF8047B70470000014091
:10211800000401400004004000080040000C00409A
:10212800001000400014004080B483B000AF786015
:102138007B684FF0FF325A607B6800221A807B6808
:1021480000221A817B6800225A807B6800229A72DA
:102158000C37BD465DF8047B704700BF80B483B080
:1021680000AF78600B467B8013463B807B687A889B
:102178001A857B683A889A820C37BD465DF8047BDD
:10218800704700BF80B485B000AF78600B467B8095
:102198000023FB817B681B88FB81FB8923F070038C
:1021A800FB81FA897B881343FB817B68FA891A8053
:1021B8001437BD465DF8047B704700BF80B483B018
:1021C80000AF786039607B683A685A620C37BD4660
:1021D8005DF8047B704700BF80B483B000AF7860BF
:1021E80039607B683A68DA620C37BD465DF8047B73
:1021F800704700BF80B483B000AF78607B685B6ACB
:1022080018460C37BD465DF8047B704780B483B030
:1022180000AF78607B681B8D9BB218460C37BD46B3
:102228005DF8047B704700BF80B483B000AF78606E
:102238000B46FB70FB78002B08D07B681B889BB291
:1022480043F002039AB27B681A8007E07B681B8818
:102258009BB223F002039AB27B681A800C37BD4602
:102268005DF8047B704700BF80B483B000AF78602E
:102278000B467B807B88002B08D07B681B889BB231
:1022880043F004039AB27B681A8007E07B681B88D6
:102298009BB223F004039AB27B681A800C37BD46C0
:1022A8005DF8047B704700BF80B483B000AF7860EE
:1022B8000B46FB70FB78002B08D07B681B889BB211
:1022C80043F080039AB27B681A8007E07B681B881A
:1022D8009BB223F080039AB27B681A800C37BD4604
:1022E8005DF8047B704700BF80B483B000AF7860AE
:1022F8000B467B807B681B889BB223F008039AB24D
:102308007B681A807B681B889AB27B8813439AB2D1
:102318007B681A800C37BD465DF8047B704700BFA8
:1023280080B483B000AF78600B467B807B681B88E5
:102338009BB223F440739AB27B681A807B681B882F
:102348009AB27B8813439AB27B681A800C37BD46D1
:102358005DF8047B704700BF80B483B000AF78603D
:102368000B46FB70FB78002B08D07B681B889BB260
:1023780043F001039AB27B681A8007E07B681B88E8
:102388009BB223F001039AB27B681A800C37BD46D2
:102398005DF8047B704700BF80B485B000AF7860FB
:1023A800396000237B810023FB810023BB817B688C
:1023B8001B8C9BB223F001039AB27B681A847B685A
:1023C8001B8CFB817B689B88BB817B681B8B7B811B
:1023D8007B8923F070037B817B8923F003037B8156
:1023E8003B681A887B8913437B81FB8923F00203AE
:1023F800FB813B689A89FB891343FB813B685A88B8
:10240800FB891343FB817B681E4A934203D07B6898
:102418001D4A934223D1FB8923F00803FB813B68C3
:10242800DA89FB891343FB81FB8923F00403FB81D1
:102438003B689A88FB891343FB81BB8923F480732B
:10244800BB81BB8923F40073BB813B681A8ABB89B3
:102458001343BB813B685A8ABB891343BB817B68A2
:10246800BA899A807B687A891A833B689A687B68FC
:102478005A637B68FA891A841437BD465DF8047B71
:10248800704700BF000001400004014080B485B0DF
:1024980000AF7860396000237B810023FB81002333
:1024A800BB817B681B8C9BB223F010039AB27B68BC
:1024B8001A847B681B8CFB817B689B88BB817B684B
:1024C8001B8B7B817B8923F4E0437B817B8923F40D
:1024D80040737B813B681B881B029AB27B8913433C
:1024E8007B81FB8923F02003FB813B689B891B01CF
:1024F8009AB2FB891343FB813B685B881B019AB244
:10250800FB891343FB817B68224A934203D07B6893
:10251800214A93422BD1FB8923F08003FB813B683E
:10252800DB891B019AB2FB891343FB81FB8923F0EA
:102538004003FB813B689B881B019AB2FB891343CC
:10254800FB81BB8923F48063BB81BB8923F40063CF
:10255800BB813B681B8A9B009AB2BB891343BB8132
:102568003B685B8A9B009AB2BB891343BB817B683B
:10257800BA899A807B687A891A833B689A687B68EB
:102588009A637B68FA891A841437BD465DF8047B20
:10259800704700BF000001400004014080B485B0CE
:1025A80000AF7860396000237B810023FB81002322
:1025B800BB817B681B8C9BB223F480739AB27B68C7
:1025C8001A847B681B8CFB817B689B88BB817B683A
:1025D8009B8B7B817B8923F070037B817B8923F034
:1025E80003037B813B681A887B8913437B81FB89C2
:1025F80023F40073FB813B689B891B029AB2FB8919
:102608001343FB813B685B881B029AB2FB89134327
:10261800FB817B68224A934203D07B68214A93421C
:102628002BD1FB8923F40063FB813B68DB891B0208
:102638009AB2FB891343FB81FB8923F48063FB81F6
:102648003B689B881B029AB2FB891343FB81BB89B9
:1026580023F48053BB81BB8923F40053BB813B68BF
:102668001B8A1B019AB2BB891343BB813B685B8AF7
:102678001B019AB2BB891343BB817B68BA899A80D4
:102688007B687A899A833B689A687B68DA637B6897
:10269800FA891A841437BD465DF8047B704700BF79
:1026A800000001400004014080B485B000AF7860AC
:1026B80039600023BB8100237B810023FB817B6879
:1026C8001B8C9BB223F480539AB27B681A847B6874
:1026D8001B8C7B817B689B88FB817B689B8BBB8188
:1026E800BB8923F4E043BB81BB8923F44073BB81DE
:1026F8003B681B881B029AB2BB891343BB817B8949
:1027080023F400537B813B689B891B039AB27B8926
:1027180013437B813B685B881B039AB27B89134315
:102728007B817B68114A934203D07B68104A9342AD
:102738000AD1FB8923F48043FB813B681B8A9B01F8
:102748009AB2FB891343FB817B68FA899A807B687C
:10275800BA899A833B689A687B681A647B687A8925
:102768001A841437BD465DF8047B704700000140A9
:102778000004014080B483B000AF78607B68002219
:102788001A807B6800225A807B6800229A807B68C6
:1027980000229A607B6800229A817B680022DA8195
:1027A8007B6800221A827B6800225A820C37BD4659
:1027B8005DF8047B704700BF80B485B000AF7860D7
:1027C8000B467B8013463B800023FB6000237B8104
:1027D8007B68FB60FB681833FB607B88012202FA88
:1027E80003F37B817B681B8C9AB27B89DB439BB2AA
:1027F80013409AB27B681A847B88002B02D07B88AE
:10280800082B14D17B885B089BB21A46FB681344DB
:10281800FB60FA68FB6819684FF68F730B4013600A
:10282800FB68FA6811683A880A431A6017E07B88DF
:10283800043B9BB25B089BB21A46FB681344FB60DF
:10284800FA68FB68196848F6FF730B401360FB6869
:10285800FA6812683988090289B20A431A6014377B
:10286800BD465DF8047B704780B483B000AF7860E4
:1028780039607B683A685A630C37BD465DF8047B5B
:10288800704700BF80B483B000AF786039607B6860
:102898003A689A630C37BD465DF8047B704700BF01
:1028A80080B483B000AF786039607B683A68DA63D7
:1028B8000C37BD465DF8047B704700BF80B483B019
:1028C80000AF786039607B683A681A640C37BD4697
:1028D8005DF8047B704700BF80B485B000AF7860B6
:1028E8000B467B800023FB817B681B8BFB81FB896C
:1028F80023F07003FB81FA897B881343FB817B6893
:10290800FA891A831437BD465DF8047B704700BF07
:1029180080B485B000AF78600B467B800023FB81D4
:102928007B681B8BFB81FB8923F4E043FB817B885D
:102938001B029AB2FB891343FB817B68FA891A83CD
:102948001437BD465DF8047B704700BF80B485B07E
:1029580000AF78600B467B800023FB817B689B8BF4
:10296800FB81FB8923F07003FB81FA897B88134381
:10297800FB817B68FA899A831437BD465DF8047B2E
:10298800704700BF80B485B000AF78600B467B808D
:102998000023FB817B689B8BFB81FB8923F4E0434D
:1029A800FB817B881B029AB2FB891343FB817B68FE
:1029B800FA899A831437BD465DF8047B704700BFD7
:1029C80080B485B000AF78600B467B800023FB8124
:1029D8007B681B8BFB81FB8923F00803FB81FA8949
:1029E8007B881343FB817B68FA891A831437BD46B9
:1029F8005DF8047B704700BF80B485B000AF786095
:102A08000B467B800023FB817B681B8BFB81FB894A
:102A180023F40063FB817B881B029AB2FB89134372
:102A2800FB817B68FA891A831437BD465DF8047BFD
:102A3800704700BF80B485B000AF78600B467B80DC
:102A48000023FB817B689B8BFB81FB8923F00803B8
:102A5800FB81FA897B881343FB817B68FA899A8317
:102A68001437BD465DF8047B704700BF80B485B05D
:102A780000AF78600B467B800023FB817B689B8BD3
:102A8800FB81FB8923F40063FB817B881B029AB2DC
:102A9800FB891343FB817B68FA899A831437BD4607
:102AA8005DF8047B704700BF80B485B000AF7860E4
:102AB8000B467B800023FB817B681B8BFB81FB899A
:102AC80023F00403FB81FA897B881343FB817B682D
:102AD800FA891A831437BD465DF8047B704700BF36
:102AE80080B485B000AF78600B467B800023FB8103
:102AF8007B681B8BFB81FB8923F48063FB817B88CC
:102B08001B029AB2FB891343FB817B68FA891A83FB
:102B18001437BD465DF8047B704700BF80B485B0AC
:102B280000AF78600B467B800023FB817B689B8B22
:102B3800FB81FB8923F00403FB81FA897B8813431B
:102B4800FB817B68FA899A831437BD465DF8047B5C
:102B5800704700BF80B485B000AF78600B467B80BB
:102B68000023FB817B689B8BFB81FB8923F48063BB
:102B7800FB817B881B029AB2FB891343FB817B682C
:102B8800FA899A831437BD465DF8047B704700BF05
:102B980080B485B000AF78600B467B800023FB8152
:102BA8007B681B8BFB81FB8923F08003FB81FA89FF
:102BB8007B881343FB817B68FA891A831437BD46E7
:102BC8005DF8047B704700BF80B485B000AF7860C3
:102BD8000B467B800023FB817B681B8BFB81FB8979
:102BE800C3F30E03FB817B881B029AB2FB89134354
:102BF800FB817B68FA891A831437BD465DF8047B2C
:102C0800704700BF80B485B000AF78600B467B800A
:102C18000023FB817B689B8BFB81FB8923F080036E
:102C2800FB81FA897B881343FB817B68FA899A8345
:102C38001437BD465DF8047B704700BF80B485B08B
:102C480000AF78600B467B800023FB817B689B8B01
:102C5800FB81FB89C3F30E03FB817B881B029AB2BD
:102C6800FB891343FB817B68FA899A831437BD4635
:102C78005DF8047B704700BF80B485B000AF786012
:102C88000B467B800023FB817B681B8CFB81FB89C7
:102C980023F00203FB81FA897B881343FB817B685D
:102CA800FA891A841437BD465DF8047B704700BF63
:102CB80080B485B000AF78600B467B800023FB8131
:102CC8007B681B8CFB81FB8923F00803FB81FA8955
:102CD8007B881343FB817B68FA891A841437BD46C5
:102CE8005DF8047B704700BF80B485B000AF7860A2
:102CF8000B467B800023FB817B681B8CFB81FB8957
:102D080023F02003FB817B881B019AB2FB891343C4
:102D1800FB817B68FA891A841437BD465DF8047B09
:102D2800704700BF80B485B000AF78600B467B80E9
:102D38000023FB817B681B8CFB81FB8923F08003CC
:102D4800FB817B881B019AB2FB891343FB817B685B
:102D5800FA891A841437BD465DF8047B704700BFB2
:102D680080B485B000AF78600B467B800023FB8180
:102D78007B681B8CFB81FB8923F40073FB817B88B8
:102D88001B029AB2FB891343FB817B68FA891A8478
:102D98001437BD465DF8047B704700BF80B485B02A
:102DA80000AF78600B467B800023FB817B681B8C1F
:102DB800FB81FB8923F40063FB817B881B029AB2A9
:102DC800FB891343FB817B68FA891A841437BD4653
:102DD8005DF8047B704700BF80B485B000AF7860B1
:102DE8000B467B800023FB817B681B8CFB81FB8966
:102DF80023F40053FB817B881B039AB2FB8913439E
:102E0800FB817B68FA891A841437BD465DF8047B18
:102E1800704700BF80B485B000AF78600B467B80F8
:102E280013463B800023FB817B88012202FA03F3CF
:102E3800FB817B681B8C9AB2FB89DB439BB21340F6
:102E48009AB27B681A847B681B8C9AB239887B8813
:102E580001FA03F39BB213439AB27B681A841437BE
:102E6800BD465DF8047B704780B485B000AF7860DC
:102E78000B467B8013463B800023FB817B88042222
:102E880002FA03F3FB817B681B8C9AB2FB89DB4354
:102E98009BB213409AB27B681A847B681B8C9AB2E7
:102EA80039887B8801FA03F39BB213439AB27B6893
:102EB8001A841437BD465DF8047B704780B582B02C
:102EC80000AF786039603B681B88002B0FD13B68E6
:102ED80059883B689A883B681B89786800F0B0FC81
:102EE8003B68DB887868194600F0E0F836E03B6814
:102EF8001B88042B0FD13B6859883B689A883B682C
:102F08001B89786800F0DEFC3B68DB887868194626
:102F180000F0E8F822E03B681B88082B0FD13B68DB
:102F280059883B689A883B681B89786800F016FDC9
:102F38003B68DB887868194600F0F2F80EE03B68D9
:102F480059883B689A883B681B89786800F04EFD71
:102F58003B68DB887868194600F0FEF80837BD46FC
:102F680080BD00BF80B483B000AF78607B6800226A
:102F78001A807B6800225A807B6801229A807B68CD
:102F88000022DA807B6800221A810C37BD465DF882
:102F9800047B704780B584B000AF78603960002347
:102FA800FB810123BB813B685B88002B02D1022394
:102FB800FB8101E00023FB813B689B88012B02D148
:102FC8000223BB8101E00123BB813B681B88002BE6
:102FD8001CD13B6859883B689A883B681B8978688C
:102FE80000F02EFC3B68DB887868194600F05EF834
:102FF8003B681B89F989BA89786800F063FC3B68EB
:10300800DB887868194600F06DF81BE03B68598842
:103018003B689A883B681B89786800F053FC3B68DA
:10302800DB887868194600F05DF83B681B89F989E8
:10303800BA89786800F004FC3B68DB887868194630
:1030480000F034F81037BD4680BD00BF80B483B0AF
:1030580000AF78607B685B6B18460C37BD465DF83F
:10306800047B704780B483B000AF78607B689B6B4B
:1030780018460C37BD465DF8047B704780B483B0B2
:1030880000AF78607B68DB6B18460C37BD465DF88F
:10309800047B704780B483B000AF78607B681B6C9A
:1030A80018460C37BD465DF8047B704780B483B082
:1030B80000AF78600B467B807B681B8B9BB223F04C
:1030C8000C039AB27B681A837B681B8B9AB27B8845
:1030D80013439AB27B681A830C37BD465DF8047BAC
:1030E800704700BF80B483B000AF78600B467B8028
:1030F8007B681B8B9BB223F440639AB27B681A836C
:103108007B681B8B9AB27B881B029BB213439AB2D3
:103118007B681A830C37BD465DF8047B704700BF97
:1031280080B483B000AF78600B467B807B689B8B54
:103138009BB223F00C039AB27B689A837B689B8BC3
:103148009AB27B8813439AB27B689A830C37BD4640
:103158005DF8047B704700BF80B483B000AF78602F
:103168000B467B807B689B8B9BB223F440639AB2AF
:103178007B689A837B689B8B9AB27B881B029BB285
:1031880013439AB27B689A830C37BD465DF8047B7B
:10319800704700BF80B483B000AF786039603B6887
:1031A8001A883B685B8813439AB23B689B88134331
:1031B8009AB23B68DB8813439AB23B681B89134376
:1031C8009AB23B685B8913439AB23B689B89134365
:1031D8009AB27B68A3F844200C37BD465DF8047B9F
:1031E800704700BF80B483B000AF78607B6800226E
:1031F8001A807B6800225A807B6800229A807B684C
:103208000022DA807B6800221A817B6800225A81BA
:103218007B6800229A810C37BD465DF8047B7047B5
:1032280080B483B000AF78600B46FB70FB78002B4E
:103238000CD07B68B3F844309BB26FEA43436FEA23
:1032480053439AB27B68A3F8442009E07B68B3F83B
:1032580044309BB2C3F30E039AB27B68A3F84420B0
:103268000C37BD465DF8047B704700BF80B483B05F
:1032780000AF78600B46FB70FB78002B08D07B68AA
:103288009B889BB243F004039AB27B689A8007E05C
:103298007B689B889BB223F004039AB27B689A8070
:1032A8000C37BD465DF8047B704700BF80B483B01F
:1032B80000AF78600B46FB70FB78002B08D07B686A
:1032C8009B889BB243F001039AB27B689A8007E01F
:1032D8007B689B889BB223F001039AB27B689A8033
:1032E8000C37BD465DF8047B704700BF80B483B0DF
:1032F80000AF78600B467B8013467B707B78002B91
:1033080008D07B689B899AB27B8813439AB27B6802
:103318009A8109E07B689B899AB27B88DB439BB2E0
:1033280013409AB27B689A810C37BD465DF8047BDE
:10333800704700BF80B483B000AF78600B467B80D5
:103348007B687A889A820C37BD465DF8047B7047A3
:1033580080B485B000AF78600B467B800023FB7398
:103368007B681B8A9AB27B8813409BB2002B02D0E1
:103378000123FB7301E00023FB73FB7B1846143722
:10338800BD465DF8047B704780B483B000AF7860B9
:103398000B467B807B88DB439AB27B681A820C37AA
:1033A800BD465DF8047B704780B485B000AF786097
:1033B8000B467B800023FB730023BB8100237B81AA
:1033C8007B681B8A9AB27B881340BB817B689B8988
:1033D8009AB27B8813407B81BB89002B05D07B89FF
:1033E800002B02D00123FB7301E00023FB73FB7B5E
:1033F80018461437BD465DF8047B704780B483B027
:1034080000AF78600B467B807B88DB439AB27B6891
:103418001A820C37BD465DF8047B704780B483B0D0
:1034280000AF78600B467B8013463B807A883B88E8
:1034380013439AB27B68A3F848200C37BD465DF861
:10344800047B704780B483B000AF78600B467B8004
:1034580013467B707B78002B08D07B689B899AB2D7
:103468007B8813439AB27B689A8109E07B689B89C1
:103478009AB27B88DB439BB213409AB27B689A81ED
:103488000C37BD465DF8047B704700BF80B483B03D
:1034980000AF78600B46FB70FB78002B08D07B6888
:1034A8009B889BB243F008039AB27B689A8007E036
:1034B8007B689B889BB223F008039AB27B689A804A
:1034C8000C37BD465DF8047B704700BF80B483B0FD
:1034D80000AF78607B681B899BB223F007039AB220
:1034E8007B681A810C37BD465DF8047B704700BFC6
:1034F80080B582B000AF78600B467B807B887868A7
:10350800194600F087F87B681B899BB243F00703D4
:103518009AB27B681A810837BD4680BD80B584B0F1
:1035280000AFF860084611461A4603467B810B46F1
:103538003B811346FB807B89602B07D13A89FB8846
:10354800F8681146012200F0BDF906E03A89FB88C7
:10355800F8681146012200F073F97B89F86819466A
:1035680000F058F8FB681B899BB243F007039AB236
:10357800FB681A811037BD4680BD00BF80B586B094
:1035880000AFF860084611461A4603467B810B4691
:103598003B811346FB800023FB8279893A89FB88AB
:1035A800F86800F0A7F8FB681B89FB82FB8A23F008
:1035B8000703FB82FB8A43F00703FB82FB8A23F0A5
:1035C8007003FB82FB8A43F07003FB82FB68FA8A74
:1035D8001A811837BD4680BD80B584B000AFF86049
:1035E800084611461A4603467B810B463B81134623
:1035F800FB8079893A89FB88F86800F07BF8FB68DA
:103608001B899BB243F480439AB2FB681A81103736
:10361800BD4680BD80B485B000AF78600B467B8026
:103628000023FB817B681B89FB81FB8923F07003E6
:10363800FB81FA897B881343FB817B68FA891A81AD
:103648001437BD465DF8047B704700BF80B483B073
:1036580000AF78600B467B807B689B889BB223F029
:1036680070039AB27B689A807B689B889AB27B8841
:1036780013439AB27B689A800C37BD465DF8047B89
:10368800704700BF80B483B000AF78600B467B8082
:103698007B681B899BB223F007039AB27B681A8167
:1036A8007B681B899AB27B8813439AB27B681A811C
:1036B8000C37BD465DF8047B704700BF80B483B00B
:1036C80000AF78600B467B807B681B899BB223F038
:1036D80080039AB27B681A817B681B899AB27B88BF
:1036E80013439AB27B681A810C37BD465DF8047B98
:1036F800704700BF80B487B000AFF8600846114635
:103708001A4603467B810B463B811346FB80002308
:10371800FB82FB681B89FB82FB8ADBB2FB82FB888E
:103728001B029AB23B8913439AB27B8913439AB21C
:10373800FB8A1343FB82FB68FA8A1A811C37BD4651
:103748005DF8047B704700BF80B487B000AFF860B5
:10375800084611461A4603467B810B463B811346B1
:10376800FB800023FB820023BB8200237B82FB6853
:103778001B89FB82FB681B8BBB82FB681B8C7B82D3
:10378800FB8A23F00703FB82FA8A7B891343FB82B7
:10379800BB8A23F4407323F00303BB82BB8A43F440
:1037A800807343F00103BB827B8A23F022037B8270
:1037B800FB881B019AB23B8913439AB27B8A134355
:1037C8007B82FB68FA8A1A81FB68BA8A1A83FB68CB
:1037D8007A8A1A841C37BD465DF8047B704700BF9F
:1037E80080B483B000AF78600B46FB70FB78002B89
:1037F80008D07B689B889BB243F080039AB27B68B1
:103808009A8007E07B689B889BB223F080039AB27A
:103818007B689A800C37BD465DF8047B704700BF13
:1038280080B483B000AF78600B467B807B687A8871
:10383800A3F850200C37BD465DF8047B704700BFE5
:1038480080B487B000AFF860084611461A460346B0
:103858007B810B463B811346FB800023FB820023C0
:10386800BB82FB681B8C9BB223F001039AB2FB68F6
:103878001A84FB681B8BFB82FB681B8CBB82FB8A50
:1038880023F0F303FB82FB881B019AB23B891343A5
:103898009AB2FB8A1343FB82BB8A23F00A03BB82DA
:1038A8007A89BB8A13439BB243F00103BB82FB684E
:1038B800FA8A1A83FB68BA8A1A841C37BD465DF8EF
:1038C800047B704780B487B000AFF86008461146A3
:1038D8001A4603467B810B463B811346FB80002337
:1038E800FB820023BB8200237B82FB681B8C9BB27C
:1038F80023F010039AB2FB681A84FB681B8BFB82C7
:10390800FB681B8CBB827B891B017B82FB8A23F4AF
:1039180040731B051B0DFB82FB881B039AB2FB8AB5
:103928001343FB823B891B029AB2FB8A1343FB8237
:10393800BB8A23F0A003BB827A8ABB8A13439BB25B
:1039480043F01003BB82FB68FA8A1A83FB68BA8AC1
:103958001A841C37BD465DF8047B704780B487B075
:1039680000AFF860084611461A4603467B810B46AD
:103978003B811346FB800023FB820023BB8200238C
:103988007B82FB681B8C9BB223F480739AB2FB6822
:103998001A84FB689B8BFB82FB681B8CBB827B8930
:1039A8001B027B82FB8A23F0F303FB82FB881B014B
:1039B8009AB23B8913439AB2FB8A1343FB82BB8AB0
:1039C80023F42063BB827A8ABB8A13439BB243F4F5
:1039D8008073BB82FB68FA8A9A83FB68BA8A1A8466
:1039E8001C37BD465DF8047B704700BF80B487B0C4
:1039F80000AFF860084611461A4603467B810B461D
:103A08003B811346FB800023FB820023BB820023FB
:103A18007B82FB681B8C9BB223F480539AB2FB68B1
:103A28001A84FB689B8BFB82FB681B8CBB827B899F
:103A38001B037B82FB8A23F440731B051B0DFB824F
:103A48003B891B029AB2FB8A1343FB82FB881B0348
:103A58009AB2FB8A1343FB82BB8A23F400535B04AC
:103A68005B0CBB827A8ABB8A13439BB243F48053B4
:103A7800BB82FB68FA8A9A83FB68BA8A1A841C3765
:103A8800BD465DF8047B704780B483B000AF7860B2
:103A9800054A7B6843F0BF6343F40033D3600C37B7
:103AA800BD465DF8047B704700ED00E080B485B04A
:103AB80000AF78600023FB730023BB730F237B7375
:103AC8007B68DB78002B38D0264BDB68DB4303F4BC
:103AD800E0631B0AFB73FB7BC3F10403BB737A7BB4
:103AE800FB7B42FA03F37B737B685B781A46BB7BEC
:103AF80002FA03F3FB737B689A787B7B1340DAB294
:103B0800FB7B1343FB73FB7B1B01FB73164A7B6830
:103B18001B781344FA7B83F80023134A7B681B78CD
:103B28005B09DBB218467B681B7803F01F03012191
:103B380001FA03F342F820300FE00B497B681B7849
:103B48005B09DBB218467B681B7803F01F03012270
:103B58009A4000F1200341F823201437BD465DF850
:103B6800047B704700ED00E000E100E080B483B022
:103B780000AF7860396007493B6823F0604323F061
:103B88007F037A6813438B600C37BD465DF8047B6E
:103B9800704700BF00ED00E080B483B000AF03467B
:103BA8000A46FB711346BB71BB79002B06D0094945
:103BB800084B1A69FB7913430B6106E00549054B6D
:103BC8001A69FB79DB4313400B610C37BD465DF87E
:103BD800047B704700ED00E080B483B000AF7860EC
:103BE8007B68042B06D1094A084B1B6843F0040381
:103BF800136005E0054A054B1B6823F004031360B6
:103C08000C37BD465DF8047B704700BF10E000E04C
:103C1800DC47000800000020740800207808002015
:103C2800D408002008B50021044600F08BF8044BA6
:103C38001868C36B03B198472046FCF701FE00BF24
:103C4800A847000870B50F4E0F4D761BB61018BF69
:103C5800002405D0013455F8043B9847A642F9D111
:103C68000A4E0B4D761B00F09FFDB61018BF0024BE
:103C780006D0013455F8043B9847A642F9D170BDE7
:103C880070BD00BFD0470008D0470008D8470008DB
:103C9800D047000870B4840746D0541E002A41D08B
:103CA800CDB2034602E0621EE4B3144603F8015B9A
:103CB8009A07F8D1032C2ED9CDB245EA05250F2C49
:103CC80045EA054519D903F110022646103E0F2E84
:103CD80042F8105C42F80C5C42F8085C42F8045C5C
:103CE80002F11002F2D8A4F1100222F00F0204F03F
:103CF8000F041032032C13440DD91E462246043AF1
:103D0800032A46F8045BFAD8221F22F00302043281
:103D1800134404F003042CB1C9B21C4403F8011B7A
:103D2800A342FBD170BC704714460346C2E700BFEC
:103D3800024B13B1024800F06FB870470000000052
:103D48002D3E00082DE9F04F314B83B01B680093DE
:103D580003F5A47381460E460193009BD3F848717E
:103D680027B3DDF804A07C68651E0ED4013407EB88
:103D780084044FF00008E6B1D4F80031B34218D0FB
:103D8800013D6B1CA4F10404F5D1224B73B17B688F
:103D9800002B36D13B68002B34D03846CAF80030A7
:103DA800AFF30080DAF80070002FDCD103B0BDE873
:103DB800F08F7B682268013BAB420CBF7D60C4F882
:103DC8000080002ADCD0D7F88831D7F804B0012168
:103DD800A940194208D190477B685B45BDD1DAF804
:103DE8000030BB42CCD0B8E7D7F88C31194204D1A7
:103DF8004846D4F880109047EEE7D4F88000904702
:103E0800EAE73B68BA461F46002FACD1CEE700BFB1
:103E1800A8470008000000000146002002460346AB
:103E280000F016B838B5084B084DED1AAC1018BF9D
:103E3800ED1805D0013C55F8043D9847002CF9D100
:103E4800BDE8384000F0B6BCD8470008DC47000899
:103E58002DE9F047254C2568D5F84841064688469F
:103E680092469946CCB360681F2818DC431C7EB183
:103E780004EB80050121C5F888A0D4F8887101FAFF
:103E880000F21743022EC4F88871C5F808911ED0B5
:103E98000230636044F820800020BDE8F087144BAE
:103EA80003B34FF4C870AFF300800446D0B1D5F81F
:103EB8004831002780E88800C5F848413846012382
:103EC800C4F88871C4F88C71002EE1D0D0E7D4F81A
:103ED8008C110A43C4F88C21DAE705F5A674C5F8F5
:103EE8004841C0E74FF0FF30BDE8F087A847000819
:103EF80000000000002103E00B4B5B5843500431E5
:103F08000A480B4B42189A42F6D30A4A02E00023A9
:103F180042F8043B084B9A42F9D3FCF7D7FDFFF768
:103F280091FEFCF795F97047DC4700080000002077
:103F38007408002078080020D4080020FEE700005C
:103F480038B50C460968054609B1FFF7F9FF284658
:103F58002146BDE8384000F093B800BF204B1B68ED
:103F680098423CD0C36C70B505468BB10026995970
:103F780039B10C68284600F083F82146002CF8D1A6
:103F8800EB6C0436802EF2D11946284600F078F8FA
:103F9800296C11B1284600F073F8D5F8481151B1D1
:103FA80005F5A676B14206D00C68284600F068F8F8
:103FB800A6422146F8D1696D11B1284600F060F893
:103FC800AB6B03B970BDEB6B28469847D5F8E01288
:103FD8000029F7D02846BDE87040FFF7B1BF704709
:103FE80060040020F8B5234F0C46064600F0AEFBEF
:103FF800BB685D6825F00305291B01F6EF7121F404
:104008007F6121F00F01A1F58054B4F5805F07DBD3
:104018003046002100F09EFBBB682B44984204D038
:10402800304600F095FB0020F8BD3046614200F0B4
:1040380091FB01300DD0104BBA6819682D1B45F063
:1040480001053046091B5560196000F081FB01200D
:10405800F8BD3046002100F07DFBBA68831A0F2BAB
:10406800DEDD064C0449246843F00103001B53605D
:104078000860D5E764040020A80800207008002024
:1040880000294ED02DE9F0410C46804600F05EFB39
:1040980054F8047C624927F00102A4F10805AB1822
:1040A8008E6858689E4220F003005AD0FE07586078
:1040B8000BD454F8087CED1B01F1080EAC6874456C
:1040C8003A4467D0EF68E760BC601C186468E4078E
:1040D8000CD4544F9C68BC4202447CD0D868E06041
:1040E80042F0010384606B60AA5003E042F00103D0
:1040F8006B60AA50B2F5007F14D2D20801EBC2035C
:1041080048689F68AF609210012404FA02F21043D5
:10411800EB6048609D60FD604046BDE8F04100F0FE
:1041280017BB7047530A042B47D8930903F1380487
:10413800600001EB80003A498368834243D05968A4
:1041480021F00301914202D99B689842F7D1DA68BD
:10415800EA60AB6040469560DD60BDE8F04100F084
:10416800F7BAFF07024407D454F8083CED1A1A447A
:10417800A868EB68C36098602B4B1B6842F001008D
:104188009A4268608D60C7D3284B40461968FFF78C
:1041980029FFC1E719184968C90709D4D9689B6874
:1041A800024442F00100D9608B606860AA50B3E70E
:1041B80042F001036B60AA50AEE7142B14D803F148
:1041C8005B046000B5E74A68A4100120A0400243E0
:1041D8004A601A46BCE742F001034D610D61EC608C
:1041E800AC606B60AA5097E7542B04D8130B03F10B
:1041F8006E0460009DE7B3F5AA7F04D8D30B03F1E2
:104208007704600095E740F25450834204D8930C39
:1042180003F17C0460008CE7FC207E2489E700BF62
:10422800640400206C0400206C080020A40800200E
:104238002DE9F04F01F10B05162D83B0064627D95D
:1042480035F0070500F1B680A94200F2B38000F00E
:104258007DFAB5F5FC7F22D2C24FE80807EBC00310
:10426800DC689C4200F0C9816368E168A56823F0B6
:104278000303234430465A68E96042F001028D6026
:104288005A6000F065FA0834204603B0BDE8F08FA4
:10429800102900F28F8000F059FA1025DCE7680A2F
:1042A80000F08F80042800F25481A80938304100BA
:1042B800AC4F07EB8101CC68A14206D10CE0002A83
:1042C80080F28280E468A14206D0636823F0030389
:1042D8005A1B0F2AF3DD01380130A2493C6901F16C
:1042E800080E744500F07E81636823F003035A1BAF
:1042F8000F2A00F36481002AC1F814E0C1F810E025
:1043080073DAB3F5007F80F03981DB0801EBC3086D
:104318004FEAA30C4A68D8F80890C4F8089001231B
:1043280003FA0CF31343C4F80C804B60C8F8084038
:10433800C9F80C408210012494409C4262D8234260
:1043480006D120F003006400234200F10400FAD0F3
:1043580007EBC008C4468146DCF80C309C4507D101
:1043680042E1002980F25281DB689C4500F03C81E3
:104378005A6822F00302511B0F29F2DD1C46D3F8BC
:104388000CC054F8088F5A1945F0010941F001058D
:10439800C3F804903046C8F80CC0CCF808807A619D
:1043A8003A61C2F80CE0C2F808E05560515000F0DC
:1043B800CFF969E700240C232046336003B0BDE839
:1043C800F08F7E213F2073E72344E1685A68A5688F
:1043D80042F00102E96030468D605A6000F0B8F999
:1043E8000834204603B0BDE8F08F234430465A68AD
:1043F80042F001025A6000F0ABF90834204603B0DD
:10440800BDE8F08FBC68636823F00308454504D80D
:10441800C5EB08030F2B00F38C80534BDFF858A132
:104428001A68DAF8003001332A4404EB080B00F06C
:10443800508102F580520F3222F47F6222F00F027F
:1044480011463046019200F085F9B0F1FF3F8146F0
:10445800019A00F0F580834500F2EF80434B19681C
:10446800CB451144196000F03D81DAF80000DFF80F
:1044780008E101301BBFCBEB090B5944CEF8009083
:10448800196019F0070100F00781C1F10800C1F5B2
:104498008051814408314A44C2F30B02C2EB010A3D
:1044A80051463046019300F055F9431C019B00F03A
:1044B8002781C9EB0002524442F001021968C7F88B
:1044C80008905144BC42C9F804201960DFF89CA048
:1044D80016D0B8F10F0F40F2E2806268A8F10C0321
:1044E80023F00703E01802F001024FF0050E1A430B
:1044F8000F2B6260C0F804E0C0F808E000F2048105
:104508001B4BBC681A68914288BF1960194B1A681E
:104518009142626888BF196022F003029542A2EBBB
:10452800050301D80F2B04DC304600F011F90024F4
:10453800AAE6621943F0010345F0010565603046BB
:10454800BA60536000F004F90834204603B0BDE8AF
:10455800F08F142869D9542800F29780280B6E3000
:104568004100A5E664040020A4080020A808002053
:10457800A00800209C080020700800205A0A042A7D
:1045880056D9142A00F2A7805B324FEA420C07EB97
:104598008C0CDFF8B481DCF80810614500F08580E8
:1045A8004A6822F00302934202D289688C45F7D107
:1045B800CA687B68E260A1609460CC60BAE663195F
:1045C80042F0010745F00105656030464B610B611B
:1045D800C3F80CE0C3F808E05F609A50083400F0B4
:1045E800B7F851E64B68A5E609F1010919F0030F80
:1045F8000CF1080C7FF4B0AE2BE004F108036469F9
:10460800A34208BF02303FF468AE2DE61A441C46A8
:104618005168DB6854F8085F41F001015160304689
:10462800EB609D6000F094F82EE65B3041003FE6B9
:104638009A0938324FEA420CA9E7BC423FF40EAF60
:10464800BC68626822F0030268E7D8F800809845E1
:1046580077D110F0030FA8F1080300F1FF30F4D16F
:104668007B6823EA04037B6064009C423FF6CAAE81
:10467800002C3FF4C7AE234248467FF469AE64007D
:10468800234200F10400FAD062E6B0F5AA7F18D8F8
:10469800E80B773041000BE64FF48051FBE601232D
:1046A800C9F804304C46002238E7D8F80430921094
:1046B8004FF0010C0CFA02F21343C8F804300A4612
:1046C80078E740F25453984217D8A80C7C30410040
:1046D800EEE51032B4E6542A1ED81A0B6E324FEAB1
:1046E800420C54E7CBF30B0000287FF4BEAE4244E3
:1046F800BB6842F001025A6002E7FC217E20D7E540
:1047080001224FF0000AD9E604F108013046FFF70C
:10471800B7FCDAF80010F3E6B2F5AA7F04D8DA0B92
:1047280077324FEA420C32E740F254518A4204D8B9
:104738009A0C7C324FEA420C29E74FF0FC0C7E229F
:1047480025E77B6890E700BF64040020704700BF3E
:10475800704700BF38B5074C00230546084623605C
:10476800FCF708F9431C00D038BD2368002BFBD0A8
:104778002B6038BDD00800206578697400000000FF
:104788004865617020616E6420737461636B206397
:104798006F6C6C6973696F6E0A000000430000005B
:1047A8003800002000000000F8B500BFF8BC08BCC5
:1047B8009E467047F8B500BFF8BC08BC9E467047D7
:0847C8001CBAFF7F0100000094
:0847D000393D0008AD010008AD
:0447D800890100084B
:1047DC00000000000004024000100140940800207A
:1047EC00007A030A0000000000000000010203042C
:1047FC00060708090000000001020304010203047B
:10480C000607080900000000000000002403002037
:10481C008C030020F40300200000000000000000C6
:10482C00000000000000000000000000000000007C
:10483C00000000000000000000000000A447000879
:10484C00000000000000000000000000000000005C
:10485C00000000000000000000000000000000004C
:10486C00000000000000000000000000000000003C
:10487C00000000000000000000000000000000002C
:10488C00000000000000000000000000000000001C
:10489C00000000000000000000000000000000000C
:1048AC0000000000000000000000000000000000FC
:1048BC0001000000000000000E33CDAB34126DE699
:1048CC00ECDE05000B000000000000000000000002
:1048DC0000000000000000000000000000000000CC
:1048EC0000000000000000000000000000000000BC
:1048FC0000000000000000000000000000000000AC
:10490C00000000000000000000000000000000009B
:104C3C003800002000000000000000006404002088
:104C4C00640400206C0400206C0400207404002018
:104C5C00740400207C0400207C04002084040020C8
:104C6C00840400208C0400208C0400209404002078
:104C7C00940400209C0400209C040020A404002028
:104C8C00A4040020AC040020AC040020B4040020D8
:104C9C00B4040020BC040020BC040020C404002088
:104CAC00C4040020CC040020CC040020D404002038
:104CBC00D4040020DC040020DC040020E4040020E8
:104CCC00E4040020EC040020EC040020F404002098
:104CDC00F4040020FC040020FC0400200405002047
:104CEC00040500200C0500200C05002014050020F4
:104CFC00140500201C0500201C05002024050020A4
:104D0C00240500202C0500202C0500203405002053
:104D1C00340500203C0500203C0500204405002003
:104D2C00440500204C0500204C05002054050020B3
:104D3C00540500205C0500205C0500206405002063
:104D4C00640500206C0500206C0500207405002013
:104D5C00740500207C0500207C05002084050020C3
:104D6C00840500208C0500208C0500209405002073
:104D7C00940500209C0500209C050020A405002023
:104D8C00A4050020AC050020AC050020B4050020D3
:104D9C00B4050020BC050020BC050020C405002083
:104DAC00C4050020CC050020CC050020D405002033
:104DBC00D4050020DC050020DC050020E4050020E3
:104DCC00E4050020EC050020EC050020F405002093
:104DDC00F4050020FC050020FC0500200406002042
:104DEC00040600200C0600200C06002014060020EF
:104DFC00140600201C0600201C060020240600209F
:104E0C00240600202C0600202C060020340600204E
:104E1C00340600203C0600203C06002044060020FE
:104E2C00440600204C0600204C06002054060020AE
:104E3C00540600205C0600205C060020640600205E
:104E4C00640600206C0600206C060020740600200E
:104E5C00740600207C0600207C06002084060020BE
:104E6C00840600208C0600208C060020940600206E
:104E7C00940600209C0600209C060020A40600201E
:104E8C00A4060020AC060020AC060020B4060020CE
:104E9C00B4060020BC060020BC060020C40600207E
:104EAC00C4060020CC060020CC060020D40600202E
:104EBC00D4060020DC060020DC060020E4060020DE
:104ECC00E4060020EC060020EC060020F40600208E
:104EDC00F4060020FC060020FC060020040700203D
:104EEC00040700200C0700200C07002014070020EA
:104EFC00140700201C0700201C070020240700209A
:104F0C00240700202C0700202C0700203407002049
:104F1C00340700203C0700203C07002044070020F9
:104F2C00440700204C0700204C07002054070020A9
:104F3C00540700205C0700205C0700206407002059
:104F4C00640700206C0700206C0700207407002009
:104F5C00740700207C0700207C07002084070020B9
:104F6C00840700208C0700208C0700209407002069
:104F7C00940700209C0700209C070020A407002019
:104F8C00A4070020AC070020AC070020B4070020C9
:104F9C00B4070020BC070020BC070020C407002079
:104FAC00C4070020CC070020CC070020D407002029
:104FBC00D4070020DC070020DC070020E4070020D9
:104FCC00E4070020EC070020EC070020F407002089
:104FDC00F4070020FC070020FC0700200408002038
:104FEC00040800200C0800200C08002014080020E5
:104FFC00140800201C0800201C0800202408002095
:10500C00240800202C0800202C0800203408002044
:10501C00340800203C0800203C08002044080020F4
:10502C00440800204C0800204C08002054080020A4
:10503C00540800205C0800205C08002000000200DE
:04504C00FFFFFFFF64
:04505000000000005C
:0400000508003EFDB4
:00000001FF
